:0300000000807805
:06007B005387EF021E4E48
:0C1E4E00787FE4F6D8FD758154021E95E3
:1024A000000101020102020301020203020303040C
:1024B000FF83DF1732094ED1E7CD8A91C6D5C4C458
:1024C0004021184E5586F4DC8A15A7EC92DF935311
:1024D0003018CA34BFA2C759678FBA0D6DD82D7D89
:1024E000540A57977039D27AEA243385ED9A1DE061
:10261F00604001C700000000000000000000000043
:10262F00000000000000000000000000000000009B
:10263F00000000000000000000000000000000008B
:10264F00000000000000000000000000000000007B
:04265F000000000077
:101EDA007E007F207D007B017A0079B912040C7E96
:101EEA00007F207D007B017A0079D912040C7E00E4
:101EFA007F207D007B017A00797912040C7E007FB5
:101F0A00207D007B017A00799912040C7E007F20E3
:101F1A007D007B017A00791112040C7E007F407DDE
:101F2A00007B017A00793912040C7E007F407D0023
:101F3A007B017A01794312040C7E007F407D007B8D
:101F4A00017A01790312040C9001C37444F09000E1
:061F5A00FAE4F0C292223D
:10222F007E007F087D007B017A0079FB12040C9001
:10223F000354E4F0900354E0FFEFC394085041902F
:10224F000354E0FF7E08EF8EF0A4FFAEF07B017A1F
:10225F000079FBE92FF9EA3EFA900354E0FFEFFD16
:10226F007C009002D37401F07F50121728EF6003A7
:10227F007F01227F0512273E900354E004F080B4C3
:02228F007F00CE
:01229100222A
:1017F8007E007F087D007B017A0079FB12040C7B58
:10180800017A0079FB9002DD7408F07D007C007F8E
:1018180050121570EF60037F01229000FBE0FFEF8C
:1018280070569000FB7411F09000FC7408F0900062
:10183800FD7408F09000FEE4F07E007F407D007BA0
:10184800017A0179C712040C7B017A00790DC00373
:10185800C002C0017B017A0079FFA801AC02AD0388
:10186800D001D002D0037E007F041201511222F56C
:10187800EF60397F012280347B017A00790DC00343
:10188800C002C0017B017A0079FFA801AC02AD0358
:10189800D001D002D0037E007F041203E8EF60037A
:0F18A8007F012212283FEF60037F01227F002281
:1022F500900344E4F0A3E4F0900344E0FEA3E0FF80
:10230500C3EF9408EE94005042900344E0FCA3E030
:10231500FD900344E0FEA3E0FF7B017A0079FBE931
:102325002FF9EA3EFA9002D37401F07F5012172874
:10233500EF60037F01227F0512273E900345E004ED
:0D234500F07006900344E004F080AD7F00CE
:012352002268
:101AC6009000FDE0FF9000FEE0FEEE8FF0A4FFAE7A
:101AD600F0EF2408FFEE3400FE900320EEF0A3EFB3
:101AE600F090031EE4F0A3E4F090031EE0FEA3E0F2
:101AF600FFC3EF9408EE940050599000FEE0FF7E7D
:101B060008EF8EF0A4FFAEF074C72FF974013EFA09
:101B16007B0190031EE0FEA3E0FFE92FF9EA3EFAFF
:101B2600900320E475F001120207ADF0FC9002D399
:101B36007401F07F50121728EF60037F01227F05A2
:101B460012273E90031FE004F0700690031EE00487
:0E1B5600F080969000FEE004F01222F57F0071
:011B6400225E
:10283F009000FEE0FFEFD39400402E7B017A0179E8
:10284F00C79000FEE0FF9000FDE0FEEE8FF0A4FFCA
:10285F009002DDEFF07D087C007F50121570EF6065
:0C286F00037F01227F0512273E7F00221C
:10079F005387EF1229E3122A471229951200567F29
:1007AF000A12296BD28CD2AF122AB97B017A007947
:1007BF0039121FE2EF60357B017A00793AC003C02E
:1007CF0002C0017B017A007901A801AC02AD03D010
:1007DF0001D002D0037E007F101201517B017A00FD
:1007EF0079017D101222927F321227801200261279
:1007FF001EDA750D01E50D700302090F7B017A00FA
:10080F007901C003C002C0017B017A007931A801D0
:10081F00AC02AD03D001D002D0037E007F041201E1
:10082F00517B017A007909C003C002C0017B017AB4
:10083F00007935A801AC02AD03D001D002D0037E00
:10084F00007F04120151122801D2EB7D027F647EDA
:10085F0008122A08750C00AF0C74412FF582E4348E
:10086F0003F583E0FF1218B79001C37444F09001B1
:10087F00C3E0FFEFB44420750800750900122B0E7A
:10088F007FB01220E61229E3122A471200567F0288
:10089F0012296BD28CD2AFE508601A750800900050
:1008AF00FA7421F07B017A00793190030A7408F011
:1008BF007F11121658E509601A7509009000FA7435
:1008CF0022F07B017A00793190030A7408F07F11CE
:1008DF001216587FC0122A8C750E00750F00750BFB
:1008EF0001E50BB40104E50F60F7E50F600B121E75
:1008FF00DA7FA0122A8C02087D12043802087D22AA
:10090F00900000E4F05390317E007F407D007B012A
:10091F007A0179C712040C1217F87B017A0079FB60
:10092F007D081222927F321227809000FEE0FFEFA7
:10093F00D3940040197B017A0179C79000FEE0FF44
:10094F00EF75F008A4FD1222927F32122780122831
:10095F0001D2EB7D027F647E08122A08750C00AF6E
:10096F000C74412FF582E43403F583E0FF1218B7BE
:10097F0020B5489000F97401F020B5169000F9E009
:10098F00FFEFC3940840F29000F9E0FFEF13928756
:10099F0080E7900000E0FFEF70159000F9E0FFEFA7
:1009AF00C394084011D2879000007401F080079023
:1009BF000000E4F0C2879000F9E4F07FC0122A8CA7
:1009CF00750E00750F00750B01E50BB40104E50FF3
:1009DF0060F7E50F60077FA0122A8C80931204380E
:0309EF00808E22D5
:10229200900322EBF0A3EAF0A3E9F0900325EDF01E
:1022A200900325E0FFEF604A900325E0FF7E009057
:1022B2000322E0FBA3E0FAA3E0F9C003C002C001DD
:1022C2007B017A017983A801AC02AD03D001D0026F
:1022D200D003120151900325E0FF90033BEFF07E03
:1022E200017F8390033CEEF0A3EFF0900183E0FFC7
:0322F2008F99229F
:03007800D29522FC
:032B0B00C295224E
:01000A0022D3
:10165800900306EFF0900307EBF0A3EAF0A3E9F09C
:101668007E007F407D007B017A01794312040C9053
:10167800030AE0FFEF2402FF900143EFF090030616
:10168800E0FF900144EFF090030AE0FF7E00900332
:1016980007E0FBA3E0FAA3E0F9C003C002C0017BA6
:1016A800017A017945A801AC02AD03D001D002D07E
:1016B800031201517F40122A7590030BE4F0A3E452
:1016C800F0900143E0FF7E0090030BE0FCA3E0FDF7
:1016D800C3ED9FEC9E503790030BE0FEA3E0FFEFB5
:1016E8002400FFEE3409FE90030BE0FCA3E0FD7438
:1016F800432DF58274013CF583E0FD122A0890031E
:101708000CE004F0700690030BE004F080B37FD087
:0F171800122A8C750B01E50B70FC7F0212296BF6
:01172700229F
:100438007E007F407D007B017A01790312040C78ED
:100448005406E6187001067F20122A757F807E09FF
:10045800122A5E9001C4EFF09001C4E0FFEF6062E1
:100468007F817E09122A5E9001C3EFF0900332E487
:10047800F0A37402F09001C4E0FF7E00900332E024
:10048800FCA3E0FDC3ED9FEC9E5037900332E0FEE5
:10049800A3E0FFEF2480FFEE3409FE122A5E9003EA
:1004A80032E0FCA3E0FD74012DF58274013CF58374
:1004B800EFF0900333E004F07006900332E004F0AC
:1004C80080B39001C3E0FFEF64116003020624903B
:1004D8000103E0FFEF6401600302079E7B017A01DC
:1004E80079037D08121C02900334EFF0900000E0BD
:1004F800FFEF64016003020589900334E0FFEFC356
:100508009408500302079EB2927B017A017903C0D6
:1005180003C002C0019000FEE0FF7E08EF8EF0A449
:10052800FFAEF074C72FF974013EFA7B01A801AC45
:1005380002AD03D001D002D0037E007F0812015122
:10054800121AC6EF700302079E7B007A007900C07A
:1005580003C002C0019000FEE0FF7E08EF8EF0A409
:10056800FFAEF074C72FF974013EFA7B01A801AC05
:1005780002AD03D001D002D0037E007F08120151E2
:1005880022900334E0FFEFC39408400302079E1251
:100598001EDA900334E0FF7E08EF8EF0A4FFAEF081
:1005A80074C72FF974013EFA7B01C003C002C00171
:1005B8007B017A007931A801AC02AD03D001D002E9
:1005C800D0037E007F08120151122AB97B017A00FC
:1005D8007939122064EF6040900334E0FF900039CD
:1005E800EFF07B017A00793AC003C002C0017B01B9
:1005F8007A0079D9A801AC02AD03D001D002D003AA
:100608007E007F201201517B017A00793990030A1C
:100618007421F07F22121658120026229001C3E09E
:10062800FFEF642260030206CAD292900103E0FF42
:10063800900334EFF07B017A017904C003C002C053
:10064800017B017A0079D9A801AC02AD03D001D0B1
:1006580002D0037E007F20120151122589EF6059D4
:100668007E007F407D007B017A00793912040C906E
:100678000334E0FF900039EFF09000FAE0FF9000BB
:100688003AEFF07B017A007979C003C002C0017BA0
:10069800017A00793BA801AC02AD03D001D002D0A9
:1006A800037E007F201201517B017A007939900383
:1006B8000A7422F07F33121658C2929001C3744410
:1006C800F0229001C3E0FFEF6433600302079E90BD
:1006D8000103E0FF900334EFF0900104E0FF900085
:1006E800FAEFF0900334E0FFEFC3940840030207E9
:1006F8009B900334E0FF7E08EF8EF0A4FFAEF07409
:10070800C72FF974013EFA7B01C003C002C0017B08
:10071800017A007931A801AC02AD03D001D002D032
:10072800037E007F081201517B017A017905C0031D
:10073800C002C0017B017A007979A801AC02AD033F
:10074800D001D002D0037E007F201201511225D49F
:10075800EF60407B017A007999C003C002C0017B39
:10076800017A007979A801AC02AD03D001D002D09A
:10077800037E007F201203E8EF70189000FAE0FF74
:10078800EFB421031200789000FAE0FFEFB42203DF
:06079800122B0B121EDA09
:01079E002238
:10258900900355E4F012253D122AB97B017A0079AE
:1025990079C003C002C0017B017A0079D990029801
:1025A900EBF0A3EAF0A3E9F090029B7420F0D001CC
:1025B900D002D0037D20120EBDEF60069003557442
:0A25C90001F0120026900355E0FF18
:0125D30022E5
:1025D400900356E4F012253D122AB97B017A007962
:1025E40099C003C002C0017B017A0079D990029896
:1025F400EBF0A3EAF0A3E9F090029B7420F0D00181
:10260400D002D0037D20120EBDEF600690035674F5
:0A26140001F0120026900356E0FFCB
:01261E002299
:101C0200900319EBF0A3EAF0A3E9F090031CEDF0C6
:101C120090031DE4F090031DE0FFEFC3940850759C
:101C220090031DE0FFEF75F008A424C7F582E434A9
:101C320001F583E0FFEF640160037F082290031C3B
:101C4200E0FF7E00C006C007900319E0FBA3E0FAA4
:101C5200A3E0F9C003C002C00190031DE0FF7E08AB
:101C6200EF8EF0A4FFAEF074C72FF974013EFA7B39
:101C720001A801AC02AD03D001D002D003D007D03D
:101C8200061203E8EF700690031DE0FF2290031D89
:071C9200E004F080807F08F0
:011C99002228
:032B0E00D2EC22E4
:03005B00022AA3D3
:102AA300439110C2EC20B505750801D29220B405FC
:062AB300750901D2923208
:1028B10043BB1053E13F53E23F90020FE0FFEF446F
:1028C10004FD7F087E08122A087D017F397E0812E7
:1028D1002A08900210E0FFEF4480FD7F097E081274
:0328E1002A0822A0
:1024F00012146B7D7F7F067E08122A087D007F07FD
:102500007E08122A087D807F697E08122A087D3A9B
:102510007F687E08122A087FA0122A8CD2EB7D04E5
:102520007F647E08122A08900209E0FFEF4408FD4C
:0D2530007F027E08122A087FD01220E622CA
:1023A90012146B7D7F7F067E08122A087D007F0745
:1023B9007E08122A087D807F697E08122A087D28F6
:1023C9007F687E08122A087FA0122A8CD2EB7D042E
:1023D9007F647E08122A08900209E0FFEF4408FD95
:1023E9007F027E08122A087FD01220E61204387F65
:0523F900A0122A8C2255
:1021630012146B7D7F7F067E08122A087D007F078D
:102173007E08122A087D807F697E08122A087D3C2A
:102183007F687E08122A087D007F667E08122A086F
:102193007DC57F217E08122A087D917F247E081247
:1021A3002A087FA0122A8CD2EB7D047F647E08125A
:1021B3002A08900209E0FFEF4448FD7F027E0812DF
:0821C3002A087FD01220E62259
:1026B40012146B7D7F7F067E08122A087D007F0737
:1026C4007E08122A087D217F687E08122A087FA0CE
:1026D400122A8C12000AD2EB7D047F647E08122A2F
:1026E40008900209E0FFEF4408FD7F027E08122AE9
:0726F400087FD01220E6224E
:1027C20012146B7D7F7F067E08122A087D197F070F
:1027D2007E08122A087DC07F697E08122A08D2EB81
:1027E2007D047F647E08122A0890020FE0FFEF4406
:0F27F20007FD7F087E08122A087FD01220E622FA
:1029BD0012146B7D007F5C7E08122A087DEF7F5D0F
:1029CD007E08122A08D2EB7D017F647E08122A0848
:0629DD007FD01220E6226B
:101D2D00E5BB543FFFEF4420F5BB53BB3F53E1FBF5
:101D3D0043E204900228E0FFEF4402FD7F217E087C
:101D4D00122A08D2EB7D087F647E08122A089002C1
:101D5D005FE0FFEF4401FD7F587E08122A08750BE6
:101D6D0001E50B70FC7F597E08122A5E7E007E0015
:101D7D00EF54F0FF900346EEF0A3EFF0900346E032
:101D8D00FEA3E0FFEFC4F8540FC868FFEEC454F093
:101D9D0048FE900346EEF0A3EFF07F5A7E08122A1C
:101DAD005E7E00900347E02FF0900346E03EF0800A
:011DBD009D88
:011DBE002202
:102450007FA0122A8C7DC57F217E08122A08900257
:1024600009E0FFEF4440FD7F027E08122A08D2EB0C
:102470007D807F647E08122A087FC0122A8C750B2B
:1024800001E50B600E7F247E08122A5E900357EF51
:0F249000F080EE7F247E08122A5E900357EFF053
:01249F00221A
:1013580012146B53BCFE7F02122A75900253E0FFF1
:10136800EF4404FD7F4C7E08122A087DFF7F4D7EE6
:1013780008122A087DFF7F487E08122A087DE07F30
:10138800477E08122A087D007F467E08122A087DBB
:10139800007F4B7E08122A087D007F4A7E08122AA9
:1013A800087D007F497E08122A08900255E0FFEF69
:1013B8004489FD7F4E7E08122A08D2EB7FD0122086
:1013C800E67F487E08122A5EE4FCFDFE90032612A2
:1013D80002307F477E08122A5EE4FCFDFEC004C08E
:1013E80005C006C007900326E0FCA3E0FDA3E0FECD
:1013F800A3E0FF780812021DA804A905AA06AB07F6
:10140800D007D006D005D004EB2FFFEA3EFEE93D19
:10141800FDE83CFC9003261202307F467E08122A23
:101428005EE4FCFDFEC004C005C006C007900326AC
:10143800E0FCA3E0FDA3E0FEA3E0FF780812021D94
:10144800A804A905AA06AB07D007D006D005D00482
:10145800EB2FFFEA3EFEE93DFDE83CFC9003261237
:02146800023050
:01146A00225F
:10123F0012146B43BC0153D9F053DAF07F02122A18
:10124F007590025CE0FFEF4404FD7F557E08122A83
:10125F00087DFF7F567E08122A087DFF7F517E088A
:10126F00122A087DE07F507E08122A087D007F4FEA
:10127F007E08122A087D007F547E08122A087D00FE
:10128F007F537E08122A087D007F527E08122A089B
:10129F0090025EE0FFEF4489FD7F577E08122A0817
:1012AF00D2EB7FD01220E67F517E08122A5EE4FC3B
:1012BF00FDFE90032A1202307F507E08122A5EE450
:1012CF00FCFDFEC004C005C006C00790032AE0FC69
:1012DF00A3E0FDA3E0FEA3E0FF780812021DA8041F
:1012EF00A905AA06AB07D007D006D005D004EB2F6F
:1012FF00FFEA3EFEE93DFDE83CFC90032A12023076
:10130F007F4F7E08122A5EE4FCFDFEC004C005C0BC
:10131F0006C00790032AE0FCA3E0FDA3E0FEA3E0D4
:10132F00FF780812021DA804A905AA06AB07D0076B
:10133F00D006D005D004EB2FFFEA3EFEE93DFDE8D5
:08134F003CFC90032A1202305D
:011357002273
:1023FE007D027F027E08122A087D007F037E08126E
:10240E002A087D3F7F047E08122A087D007F057E04
:10241E0008122A087D007F0E7E08122A087D057F8D
:10242E000F7E08122A087D017F107E08122A087D71
:10243E00007F5C7E08122A087D007F5D7E08122ACE
:02244E00082262
:10005E00900358E4F0900358E0FFEFC3940A500960
:09006E0000900358E004F080EC5E
:010077002266
:102ACF0043BB0275F58075F70575F541E5F520E017
:022ADF00FB22D8
:092AFC0075F541E5F520E0FB222F
:062B0500E5F520E6FB22CD
:0B2AF100E5F530E0FBE5F520E0FB22FE
:102AE100900359EFF0900359E0FFEF25E0F5F42250
:10287B00900348EFF0900349EDF0900348E0FF8F91
:10288B00F6900349E0FF8FF512005EE5F520E0FBC3
:10289B00E5F55412FFEF600BE5F520E40375F50445
:0628AB007F01227F0022E4
:10000E0090035AEFF090035AE0FFEF25E0FFEF4424
:04001E0001F5F422D2
:1029170090035BEFF090035BE0FF8FF512005EE53D
:10292700F520E0FBE5F55412FFEF600BE5F520E439
:0A2937000375F5047F01227F0022E2
:101C9A0090030DEFF090030EEBF0A3EAF0A3E9F046
:101CAA00900311E0FFEF70037F012290030DE0FF24
:101CBA00122AE1122B05D202900311E0FFEF6060B5
:101CCA00900311E0FFEFB4011530020AC20290033B
:101CDA00127407F0801B9003127405F0801330020F
:101CEA000AC2029003127403F08006900312740170
:101CFA00F090030EE0FBA3E0FAA3E0F9120177FFEC
:101D0A00900312E0FD12287BEF60037F012290030B
:101D1A000FE475F0011201F1900311E014F08098BC
:021D2A007F0038
:011D2C002294
:101DBF00900313EFF0900314EBF0A3EAF0A3E9F014
:101DCF00900317E0FFEF70037F0122900313E0FFF2
:101DDF0012000E122B05D203900317E0FFEF605C89
:101DEF00900317E0FFEFB4011530030AC20390030D
:101DFF00187407F0801B9003187405F080133003DC
:101E0F000AC203900318740BF0800690031874092C
:101E1F00F0900318E0FF122917EF60037F01229063
:101E2F000314E0FBA3E475F001120207A9F0FAE531
:0E1E3F00F61201BD900317E014F0809C7F00A6
:011E4D002272
:101B65009002C3EFF09002C4ECF0A3EDF09002C632
:081B7500EBF0A3EAF0A3E9F094
:101B7D009002C9E0FFEFD3948040037F01229002D1
:101B8D00C9E0FFEF70037F01229002C3E0FFEF2554
:101B9D00E0F5F4122B059002C4E0FEA3E0FFEF5434
:101BAD00FFFF9002CBEFF09002C4E0FEA3E0FFEE4A
:101BBD00FF7E009002CCEFF09002CCE0FF8FF67527
:101BCD00F50312005E122B059002CBE0FF8FF67528
:101BDD00F50112005E122B059002C6E0FBA3E0FAA0
:101BED00A3E0F9120177FF8FF675F50512005E126D
:041BFD002B057F0035
:011C010022C0
:101728009002CDEFF09002CEECF0A3EDF09002D055
:08173800EBF0A3EAF0A3E9F0D5
:101740009002D3E0FFEFD3948040037F0122900208
:10175000D3E0FFEF70037F01229002CDE0FF122A59
:10176000E175F503E5F55404FFEF640160F69002BE
:10177000CEE0FEA3E0FFEF54FFFF9002D5EFF09024
:1017800002CEE0FEA3E0FFEEFF7E009002D6EFF077
:101790009002D6E0FF8FF6122AF19002D5E0FF8F7B
:1017A000F675F501122AF19002D3E0FFEF60469042
:1017B00002D3E0FFEFB401089002D47405F0800674
:1017C0009002D47401F09002D0E0FBA3E0FAA3E011
:1017D000F9120177FF9002D4E0FD12287BEF60033D
:1017E0007F01229002D1E475F0011201F19002D341
:0717F000E014F080B27F005D
:0117F70022CF
:101570009002D7EFF09002D8ECF0A3EDF09002DAF1
:08158000EBF0A3EAF0A3E9F08F
:101588009002DDE0FFEF70037F01229002D7E0FFB9
:10159800122AE1E5F55440FFEF640160F69002D8A5
:1015A800E0FEA3E0FFEF54FFFF9002DFEFF09002B0
:1015B800D8E0FEA3E0FFEEFF7E009002E0EFF0909F
:1015C80002E0E0FF7D0312287BEF60037F01229099
:1015D80002DFE0FF7D0112287BEF60037F0122908C
:1015E80002D7E0FF12000ED2049002DDE0FFEF60A8
:1015F8005C9002DDE0FFEFB4011530040AC20490EC
:1016080002DE7407F0801B9002DE7405F080133050
:10161800040AC2049002DE740BF080069002DE74A5
:1016280009F09002DEE0FF122917EF60037F012224
:101638009002DAE0FBA3E475F001120207A9F0FAC0
:0F164800E5F61201BD9002DDE014F0809C7F00FA
:011657002270
:1028E400030730000000035D03070280000009AD08
:1028F40003071B00000024CD032708000000032762
:10290400128238007465737420313233000327084F
:03291400000700B9
:04005600122ACF2279
:101A1E009002EBEBF0A3EAF0A3E9F09002EEEDF00A
:101A2E007B007A007900C003C002C0019002EBE097
:101A3E00FBA3E0FAA3E0F9D082D083D0E06B70086C
:101A4E00E965827003EA658370047F0180027F007E
:101A5E009002EEE0FEEE70047E0180027E00EF4EFC
:101A6E00FFEF70539002EBE0FBA3E0FAA3E0F990D6
:101A7E0002EEE0FF900311EFF07F64121C9A9002C9
:101A8E00F2E0FF7E007D009002EFE0FBA3E0FAA300
:101A9E00E0F912040C9002F3E0FF1227809002EF9F
:101AAE00E0FBA3E0FAA3E0F99002F2E0FF90031747
:081ABE00EFF07F64121DBF224E
:0B1F60009002A2EBF0A3EAF0A3E9F06E
:101F6B007BFF7A2879E4C003C002C0017B017A02AF
:101F7B0079A5A801AC02AD03D001D002D0037E003D
:101F8B007F081201517B017A0279A5C003C002C000
:101F9B00019002A2E0FBA3E0FAA3E0F99002EFEBC1
:101FAB00F0A3EAF0A3E9F09002F27407F09002F3C9
:101FBB007401F0D001D002D0037D08121A1E9002DA
:101FCB00A2E0FBA3E0FAA3E0F9120177FFEFB4075D
:061FDB00037F01227F00DC
:011FE10022DD
:0B1FE2009002ADEBF0A3EAF0A3E9F0E1
:101FED007BFF7A2879ECC003C002C0017B017A0225
:101FFD0079B0A801AC02AD03D001D002D0037E00B0
:10200D007F081201517B017A0279B0C003C002C072
:10201D00019002ADE0FBA3E0FAA3E0F99002EFEB33
:10202D00F0A3EAF0A3E9F09002F27423F09002F32A
:10203D007401F0D001D002D0037D08121A1E900257
:10204D00ADE0FBA3E0FAA3E0F9120177FFEFB423B3
:06205D00037F01227F0059
:01206300225A
:0B2064009002B8EBF0A3EAF0A3E9F053
:10206F007BFF7A2879F4C003C002C0017B017A029A
:10207F0079BBA801AC02AD03D001D002D0037E0022
:10208F007F081201517B017A0279BBC003C002C0E5
:10209F00019002B8E0FBA3E0FAA3E0F99002EFEBA6
:1020AF00F0A3EAF0A3E9F09002F27423F09002F3A8
:1020BF007406F0D001D002D0037D08121A1E9002D0
:1020CF00B8E0FBA3E0FAA3E0F9120177FFEFB42326
:0620DF00037F01227F00D7
:0120E50022D8
:10253D0090035CE4F090035CE0FFEFC39420503B0C
:10254D0090035CE0FF74D92FF582E43400F583C06D
:10255D0083C082E0FF90035CE0FEEE5407FE743111
:10256D002EF582E43400F583E0FEEF6EFFD082D0CD
:0B257D0083EFF090035CE004F080BAF4
:012588002230
:100EBD00900294EBF0A3EAF0A3E9F0900297EDF025
:100ECD007BFF7A2879FCC003C002C0017B017A0246
:100EDD00799CA801AC02AD03D001D002D0037E00F5
:100EED007F061201517E007F407D007B017A0179E2
:100EFD004312040C7B017A02799CC003C002C0012D
:100F0D007B017A017943A801AC02AD03D001D00277
:100F1D00D0037E007F0612015190029BE0FF7E0000
:100F2D00900298E0FBA3E0FAA3E0F9C003C002C071
:100F3D00017B017A017949A801AC02AD03D001D042
:100F4D0002D0031201517B017A017944C003C00222
:100F5D00C0017B017A017969900289EBF0A3EAF077
:100F6D00A3E9F0D001D002D0037D25120D8E7B01B7
:100F7D007A017943C003C002C0017B017A01790374
:100F8D009002EFEBF0A3EAF0A3E9F09002F27423E4
:100F9D00F09002F37404F0D001D002D0037D28123A
:100FAD001A1E900103E0FFEFB42330900297E0FF8B
:100FBD007E007B017A017904C003C002C00190025A
:100FCD0094E0FBA3E0FAA3E0F9A801AC02AD03D0D5
:0D0FDD0001D002D0031201517F01227F00DC
:010FEA0022E4
:100FEB00900272EBF0A3EAF0A3E9F0900275EDF03A
:100FFB007BFF7A297902C003C002C0017B017A0210
:10100B007976A801AC02AD03D001D002D0037E00EB
:10101B007F061201517BFF7A297908C003C002C0F9
:10102B00017B017A02797CA801AC02AD03D001D01F
:10103B0002D0037E007F091201517E007F407D00AC
:10104B007B017A01794312040C7B017A027976C019
:10105B0003C002C0017B017A017943A801AC02AD48
:10106B0003D001D002D0037E007F06120151900203
:10107B0075E0FF7E00900272E0FBA3E0FAA3E0F9BB
:10108B00C003C002C0017B017A017949A801AC02FF
:10109B00AD03D001D002D0031201517B017A01794B
:1010AB0044C003C002C0017B017A017969900289B7
:1010BB00EBF0A3EAF0A3E9F0D001D002D0037D2539
:1010CB00120D8E7B017A017943C003C002C0017BF4
:1010DB00017A0179039002EFEBF0A3EAF0A3E9F0B8
:1010EB009002F27404F09002F37404F0D001D00279
:1010FB00D0037D28121A1E900103E0FFEFB4040BFE
:0D110B00900104E0FFEF70037F01227F00E0
:0111180022B4
:101119009002E1EBF0A3EAF0A3E9F09002E4EDF02C
:101129007BFF7A297911C003C002C0017B017A02D1
:1011390079E5A801AC02AD03D001D002D0037E004D
:101149007F061201517E007F407D007B017A017983
:101159004312040C7B017A0279E5C003C002C00185
:101169007B017A017943A801AC02AD03D001D00219
:10117900D0037E007F061201517B017A0079D9C024
:1011890003C002C0017B017A017949A801AC02AD13
:1011990003D001D002D0037E007F201201517B01D0
:1011A9007A017944C003C002C0017B017A017969DF
:1011B900900289EBF0A3EAF0A3E9F0D001D002D0C4
:1011C900037D25120D8E7B017A017943C003C0028C
:1011D900C0017B017A0179039002EFEBF0A3EAF0F9
:1011E900A3E9F09002F27423F09002F37404F0D0B2
:1011F90001D002D0037D28121A1E900103E0FFEFEF
:10120900B423309002E4E0FF7E007B017A01790487
:10121900C003C002C0019002E1E0FBA3E0FAA3E031
:10122900F9A801AC02AD03D001D002D003120151DB
:051239007F01227F008F
:01123E00228D
:102AB90075F60075F5037F0112296B75F5057F051C
:062AC90012273E7F0022EF
:1000260075F4C8E5F520E6FB75F60175F5071200CF
:100036005EE5F520E0FBE5F55412FFEF600BE5F514
:0C00460020E40375F5047F01227F0022F6
:100D8E00900285EBF0A3EAF0A3E9F0900288EDF073
:100D9E0090028DE4F0A3E4F090028F7480F0A374BF
:100DAE0005F090028CE4F0900288E0FF90028CE057
:100DBE00FEEEC39F4003020E809002917401F090EC
:100DCE000291E0FFEFD394005003020E779002855C
:100DDE00E0FBA3E0FAA3E0F990028CE0FF8F8275AE
:100DEE008300120190FF900291E0FEEF5EFFEF6034
:100DFE00047F0180027F00900292EFF090028DE05E
:100E0E00FEA3E0FFEEC41313135401FF7E00900205
:100E1E0093EFF090028DE0FEA3E0FFEF25E0FFEEF2
:100E2E0033FE90028DEEF0A3EFF0900293E0FF9070
:100E3E000292E0FEEE6FFFEF601E90028DE0FEA3C9
:100E4E00E0FF90028FE0FCA3E0FDEE6CFEEF6DFF85
:100E5E0090028DEEF0A3EFF0900291E0FFEF25E00F
:100E6E00FF900291EFF0020DCD90028CE004F002A3
:100E7E000DB590028DE0FEA3E0FFEF54FFFF900250
:100E8E0089E0FBA3E0FAA3E0F9EF1201BD90028D19
:100E9E00E0FEA3E0FFEEFF7E00900289E0FBA3E000
:0E0EAE00FAA3E0F9758201758300EF1201CFFF
:010EBC002213
:0529410090034CEFF0D3
:1029460090034CE0FF14F0EF601A90034DE4F09012
:10295600034DE0FFEFC3940750E690034DE004F00B
:0429660080ED80DCA4
:01296A00224A
:05296B0090034EEFF0A7
:1029700090034EE0FF14F0EF601A90034FE4F090E4
:10298000034FE0FFEFC3946750E690034FE004F07D
:0429900080ED80DC7A
:012994002220
:05273E00900335EFF0EF
:10274300900335E0FF14F0EF6032900336E4F0902D
:102753000336E0FFEFC3940A50E6900337E4F090AA
:102763000337E0FFEFC394D25008900337E004F03F
:0C27730080ED900336E004F080D580C4B7
:01277F002237
:05278000900338EFF0AA
:10278500900338E0FF14F0EF6032900339E4F090E5
:102795000339E0FFEFC3946450E690033AE4F09008
:1027A500033AE0FFEFC394D2500890033AE004F0F7
:0C27B50080ED900339E004F080D580C472
:0127C10022F5
:1029E30075800075D1FF75D2FF75D3FF75900075A3
:1029F300D9FF75DAFF75DBFF75B0FF75E1C275E2CC
:052A0300C275E3FF2293
:102A4700C28CE58954F0FFEF4401F589758CFB755D
:072A57008AD5C28DD2A9222D
:1029950043BB01C28EE589540FFFEF4420F58975CD
:1029A5008DF5758BF5758780758E1075984075C892
:0829B50000D29CD28ED2AC22AC
:03000B000221CB04
:1021CB00C0E0C083C082C0D075D000C000C006C0C4
:1021DB0007758CFB758AD5C28D050EE50EC39496DB
:1021EB004003750F01781106E6187001067810E6AA
:1021FB00FE08E6FFC3EF94F4EE94014018781076D6
:10220B00000876009000F9E0FFEFD39400400690B1
:10221B0000F9E004F0D007D006D000D0D0D082D0A7
:04222B0083D0E0324A
:0300230002266A48
:10266A00C0E0C083C082C0D075D01830992EC299FC
:10267A0090033BE014F090033BE0FFEF601E9003F1
:10268A003DE004F0700690033CE004F090033CE067
:10269A00FEA3E0FF8F828E83E0FF8F99309802C2FB
:0A26AA0098D0D0D082D083D0E03267
:032B110080FE2221
:102A2D003475C58CC73345E787681487801487A034
:0A2A3D001487781487901487B014F2
:06266300430341000102E7
:102A080090033EEEF0A3EFF0900340EDF09003400A
:102A1800E0FF90033EE0FCA3E0FD8D828C83EFF0A5
:052A2800000000002287
:102A5E00900350EEF0A3EFF0900350E0FEA3E0FFE2
:072A6E008F828E83E0FF223E
:102A750090035DEFF090035DE0FD7F007E08122A74
:072A8500087F011229412224
:102A8C0090035EEFF090035EE0FD7F017E08122A5A
:072A9C00087F01122941220D
:102801007F0512296B7F80122A751223537F0512CF
:10281100296B1219701209F2E50D6011900227E07F
:10282100FFEF54FEFD7F207E08122A082290022726
:0E283100E0FFEF4401FD7F207E08122A0822FE
:102353007F011226FB900352E4F0A3E4F0900352B2
:10236300E0FEA3E0FFC3EF946BEE940050379003BD
:1023730052E0FEA3E0FFEF2400FFEE3408FE9003DB
:1023830052E0FCA3E0FD74072DF58274023CF58353
:10239300E0FD122A08900353E004F0700690035204
:0523A300E004F080B829
:0123A8002212
:101970009002F4E4F09002F4E0FFEFC394085026E4
:101980009002F4E0FF7E00C374419FFF74089EFE46
:101990009002F4E0FDED902A2D93FD122A089002AA
:1019A000F4E004F080CF9002F4E4F09002F4E0FF61
:1019B000EFC39408502C9002F4E0FF7E00C3744102
:1019C0009FFF74089EFE122A5E9002F4E0FE74F5FA
:1019D0002EF582E43402F583EFF09002F4E004F097
:1019E00080C99002F4E4F09002F4E0FFEFC39408A1
:1019F000502B9002F4E0FFEF902A2D93FF9002F419
:101A0000E0FE74F52EF582E43402F583E0FEEE6F1D
:0D1A10006003122B119002F4E004F080CA74
:011A1D0022A6
:1009F2007FA0122A8C900231E0FD7F2A7E08122A03
:100A02000890020AE0FFEF440AFD7F037E08122AE3
:100A1200087F037E08122A5E900304EFF09003041D
:100A2200E0FFEF540AFFEF70E87F2A7E08122A5E89
:100A3200900304EFF0900304E0FFEF540FFF9002E5
:100A4200FDEFF0900304E0FFEFC4540FFFEF5401F9
:100A5200FF9002FFEFF07F2B7E08122A5E900304C4
:100A6200EFF0900304E0FFEF541FFF9002FEEFF05F
:100A72009002FFE0FFEF6003122B11900227E0FFCC
:100A8200EF5430FFEFC4540FFF900304EFF09003D4
:100A920004E0FFEF6009900304E0FFEFB40113905C
:100AA20002FDE0FFEF04FFEF4410FD7F2A7E0812F3
:100AB2002A087F2C7E08122A5E900304EFF090032E
:100AC20004E0FFEF540FFF900300EFF0900304E007
:100AD200FFEFC4540FFFEF5401FF900301EFF090BA
:100AE2000301E0FFEF6003122B117DCC7F217E0812
:100AF200122A0890020AE0FFEF4401FD7F037E08FC
:100B0200122A087F037E08122A5E900304EFF090F7
:100B12000304E0FFEF20E0EB900228E0FD7F217E5E
:100B220008122A08900305E4F0900305E0FFEF7530
:100B3200F003A42435F582E4342AF583E493FD7F9F
:100B4200147E08122A08900305E0FFEF75F003A453
:100B52002436F582E4342AF583E493FD7F157E087A
:100B6200122A08900305E0FFEF75F003A42437F57D
:100B720082E4342AF583E493FD7F167E08122A0864
:100B820090020AE0FFEF4404FD7F037E08122A0868
:100B92007F037E08122A5E900304EFF0900304E0C4
:100BA200FFEF20E2EB7F2D7E08122A5E900304EF16
:100BB200F0900304E0FFEF5407FF900302EFF09080
:100BC2000304E0FFEF131313541FFFEF5401FF90D0
:0F0BD2000303EFF0900303E0FFEF6003122B111A
:010BE10022F1
:1020E60090035FEFF075BB0075D10075D2FF758068
:1020F6000075D3FF75D90075DAFF75900075DBFFA3
:1021060075E10075E20075B0C375E3C37D087F62B3
:102116007E08122A0890035FE0FFEF12023C214777
:10212600A8213CB02131D0000021507DD07F637EB4
:1021360008122A0880147DB07F637E08122A088060
:10214600097DA87F637E08122A087F80122A8C7573
:0D215600B9094387020000E58720E1FB2264
:1018B700900360EFF0E50D6058900360E0FFEF756F
:1018C700F003A42435F582E4342AF583E493FD7FFD
:1018D700147E08122A08900360E0FFEF75F003A456
:1018E7002436F582E4342AF583E493FD7F157E08D8
:1018F700122A08900360E0FFEF75F003A42437F580
:1019070082E4342AF583E493FD7F167E08122A08C1
:1019170022900360E0FFEF75F003A4243EF582E414
:10192700342AF583E493FD7F147E08122A08900376
:1019370060E0FFEF75F003A4243FF582E4342AF555
:1019470083E493FD7F157E08122A08900360E0FF69
:10195700EF75F003A42440F582E4342AF583E49379
:09196700FD7F167E08122A0822F9
:10146B009003307403F0A3740DF07FA0122A8C90BC
:10147B000330E0FEA3E0FFEEFF7E00AD077F0C7EA6
:10148B0008122A08900330E0FEA3E0FFAD077F0DA2
:10149B007E08122A0890020FE0FFEF4404FD7F083C
:1014AB007E08122A08900210E0FFEF4401FD7F092D
:1014BB007E08122A087F097E08122A5E7E0090039E
:1014CB002EEEF0A3EFF090032EE0FEA3E0FFEF2053
:1014DB00E0E37F097E08122A5E7E007E00EF54F067
:1014EB00FF90032EEEF0A3EFF090032EE0FEA3E0AF
:1014FB00FFEFC4F8540FC868FFEEC454F048FE90D9
:10150B00032EEEF0A3EFF07F0A7E08122A5E7E0018
:10151B0090032FE02FF090032EE03EF0900330E08D
:10152B00FEA3E0FFEF24F6FFEE34FFFE90032EE068
:10153B00FCA3E0FDD3ED9FEC9E50030214B090038F
:10154B0030E0FEA3E0FFEF240AFFEE3400FE900331
:10155B002EE0FCA3E0FDC3ED9FEC9E40030214B014
:04156B00220214B094
:01156F002259
:03005300020003A5
:07000300439108750B003268
:100BE20000A002003F00000000000000000000051D
:100BF200013DB04C87681400008687F615601B5FC4
:100C020002C0BF00000300032B2A000780106D18EA
:100C120003040037021849800400000000000000AD
:100C220000000000000000000000000000000000C2
:100C320000000000000000006600000000000081CB
:100C420020B408D00000000000001100A002003F04
:100C52000000000000000000000005013DB04C87CC
:100C6200681400008687F615C01B5F12C0BF000023
:100C72000300032B2A000780106D180304003702BB
:100C82001848800000000000000000000000000082
:100C92000000000000000000000000000000000052
:100CA200000000660000000000008120B408D000AF
:100CB20000000000001100A002003F000000000040
:100CC200000000000005813DB04C5A456200005909
:100CD2005AA995C01B5F22C0BF00000300032B2A44
:100CE200000780106D1803040037021848800000C6
:100CF20000000000000000000000000000000000F2
:100D0200000000000000000000000000000066007B
:100D120000000000008120B408D0000000000000A4
:100D22001100A002003F00000000000000000000CF
:100D32004541BFB04C6C534300006B6CC816C01BDE
:100D42005F32C0BF00000300032B2A000780106D32
:100D52001803040037021848800000000000000059
:100D62000000000000000000000000000000000081
:100D7200000000000000000000660000000000000B
:0C0D82008120B408D00000000000001127
:1026FB00E4FD7C6B900207E4F0A3DCFCE4FCFD75CD
:10270B00F06BEFA424E2F582E5F0340BF583E58260
:10271B002DF582E5833CF583E493FE74072DF5825A
:10272B00E43402F583EEF00DBD00010CED646B4C4F
:02273B0070CD5F
:01273D002279
:101E5A0002079FE493A3F8E493A34003F68001F2F8
:101E6A0008DFF48029E493A3F85407240CC8C33389
:101E7A00C4540F4420C8834004F456800146F6DF58
:101E8A00E4800B010204081020408090261FE47EA3
:101E9A00019360BCA3FF543F30E509541FFEE4934D
:101EAA00A360010ECF54C025E060A840B8E493A314
:101EBA00FAE493A3F8E493A3C8C582C8CAC583CA3F
:101ECA00F0A3C8C582C8CAC583CADFE9DEE780BEF7
:012669000070
:10008100E709F608DFFA8046E709F208DFFA803E61
:1000910088828C83E709F0A3DFFA8032E309F6084E
:1000A100DFFA8078E309F208DFFA807088828C83B6
:1000B100E309F0A3DFFA806489828A83E0A3F6086A
:1000C100DFFA805889828A83E0A3F208DFFA804C44
:1000D10080D280FA80C680D4806980F2803380101B
:1000E10080A680EA809A80A880DA80E280CA803384
:1000F10089828A83ECFAE493A3C8C582C8CCC583FC
:10010100CCF0A3C8C582C8CCC583CCDFE9DEE780CB
:100111000D89828A83E493A3F608DFF9ECFAA9F04A
:10012100EDFB2289828A83ECFAE0A3C8C582C8CCA0
:10013100C583CCF0A3C8C582C8CCC583CCDFEADEB9
:10014100E880DB89828A83E493A3F208DFF980CC1B
:1001510088F0EF60010E4E60C388F0ED2402B40414
:100161000050B9F582EB2402B4040050AF232345BB
:0601710082239000D1730F
:10017700BB010689828A83E0225002E722BBFE0286
:09018700E32289828A83E49322B9
:10019000BB010CE58229F582E5833AF583E0225024
:1001A00006E92582F8E622BBFE06E92582F8E2226E
:0D01B000E58229F582E5833AF583E4932288
:1001BD00BB010689828A83F0225002F722BBFE0121
:0201CD00F3221B
:1001CF00F8BB010DE58229F582E5833AF583E8F066
:1001DF00225006E92582C8F622BBFE05E92582C812
:0201EF00F222FA
:1001F100C5F0F8A3E028F0C5F0F8E5821582700299
:060201001583E038F02235
:10020700A3F8E0C5F025F0F0E582158270021583AA
:06021700E0C838F0E82207
:10021D00E8600FEFC333FFEE33FEED33FDEC33FC3F
:03022D00D8F122E3
:0C023000ECF0A3EDF0A3EEF0A3EFF02241
:10023C00D083D082F8E4937012740193700DA3A351
:10024C0093F8740193F5828883E473740293686065
:06025C00EFA3A3A380DF65
:10026200E3F5F009E208B5F06BDFF58067E3F5F03E
:1002720009E608B5F05EDFF5805A87F009E608B5B1
:10028200F052DFF6804E87F009E208B5F046DFF65D
:10029200804288828C8387F009E0A3B5F036DFF6CE
:1002A200803288828C8387F009E493A3B5F025DF3E
:1002B200F5802188828C83E3F5F009E0A3B5F01480
:1002C200DFF5801088828C83E3F5F009E493A3B50F
:1002D200F002DFF4020391808780E9809080D4806D
:1002E2003E8015806E807E809D80B7808D80A38049
:1002F200518074803C02039D89828A83ECFAE493E4
:10030200F5F0A3C8C582C8CCC583CCE493A3C8C505
:1003120082C8CCC583CCB5F076DFE3DEE18070899C
:10032200828A83E493F5F0A3E208B5F062DFF480F9
:100332005E89828A83E0F5F0A3E608B5F051DFF525
:10034200804D89828A83E0F5F0A3E208B5F040DFB0
:10035200F5803C89828A83E493F5F0A3E608B5F040
:100362002EDFF4802A8002805789828A83ECFAE4A5
:1003720093F5F0A3C8C582C8CCC583CCE0A3C8C599
:1003820082C8CCC583CCB5F006DFE4DEE280007F14
:10039200FFB5F0020F2240027F012289828A83EC9C
:1003A200FAE0F5F0A3C8C582C8CCC583CCE0A3C8E7
:1003B200C582C8CCC583CCB5F0D5DFE5DEE380CFFE
:1003C20089828A83ECFAE0F5F0A3C8C582C8CCC55D
:1003D20083CCE493A3C8C582C8CCC583CCB5F0AFA7
:1003E200DFE4DEE280A988F0EF60010E4E60ABED43
:1003F2002402B404005098F582EB2402B4040050A5
:0A0402008E23234582239002D97354
:10040C00EF4E6012EF60010EEDBB010B89828A8307
:10041C00F0A3DFFCDEFA2289F05007F709DFFCA914
:0C042C00F022BBFEFCF309DFFCA9F0226B
:00000001FF
