:0300000000807805
:06007B005387EF021E1581
:0C1E1500787FE4F6D8FD758154021E5C55
:102465000001010201020203010202030203030447
:10247500FF83DF1732094ED1E7CD8A91C6D5C4C493
:102485004021184E5586F4DC8A15A7EC92DF93534C
:102495003018CA34BFA2C759678FBA0D6DD82D7DC4
:1024A500540A57977039D27AEA243385ED9A1DE09C
:1025E400604001C70000000000000000000000007F
:1025F40000000000000000000000000000000000D7
:1026040000000000000000000000000000000000C6
:1026140000000000000000000000000000000000B6
:0426240000000000B2
:101EA1007E007F207D007B017A0079B912040C7ECF
:101EB100007F207D007B017A0079D912040C7E001D
:101EC1007F207D007B017A00797912040C7E007FEE
:101ED100207D007B017A00799912040C7E007F201D
:101EE1007D007B017A00791112040C7E007F407D18
:101EF100007B017A00793912040C7E007F407D005D
:101F01007B017A01794312040C7E007F407D007BC6
:101F1100017A01790312040C9001C37444F090001A
:041F2100FAE4F022CC
:1021F4007E007F087D007B017A0079FB12040C903D
:10220400034AE4F090034AE0FFEFC394085041907E
:10221400034AE0FF7E08EF8EF0A4FFAEF07B017A64
:102224000079FBE92FF9EA3EFA90034AE0FFEFFD5B
:102234007C009002C97401F07F501216ACEF600369
:102244007F01227F0512270390034AE004F080B443
:022254007F0009
:012256002265
:10185A007E007F087D007B017A0079FB12040C7BF5
:10186A00017A0079FB9002D37408F07D007C007F36
:10187A00501215B1EF60037F01229000FBE0FFEFE9
:10188A00641160569000FB7411F09000FC7408F02B
:10189A009000FD7408F09000FEE4F07E007F407D29
:1018AA00007B017A0179C712040C7B017A00790D59
:1018BA00C003C002C0017B017A0079FFA801AC0213
:1018CA00AD03D001D002D0037E007F041201511271
:1018DA0022BAEF60397F012280347B017A00790DC8
:1018EA00C003C002C0017B017A0079FFA801AC02E3
:1018FA00AD03D001D002D0037E007F041203E8EFCB
:10190A0060037F0122122804EF60037F01227F0017
:01191A0022AA
:1022BA0090033AE4F0A3E4F090033AE0FEA3E0FFCF
:1022CA00C3EF9408EE9400504290033AE0FCA3E076
:1022DA00FD90033AE0FEA3E0FF7B017A0079FBE977
:1022EA002FF9EA3EFA9002C97401F07F501216AC37
:1022FA00EF60037F01227F0512270390033BE0046E
:0D230A00F0700690033AE004F080AD7F0013
:0123170022A3
:101B2A009000FDE0FF9000FEE0FEEE8FF0A4FFAE15
:101B3A00F0EF2408FFEE3400FE900316EEF0A3EF58
:101B4A00F0900314E4F0A3E4F0900314E0FEA3E0A1
:101B5A00FFC3EF9408EE940050599000FEE0FF7E18
:101B6A0008EF8EF0A4FFAEF074C72FF974013EFAA5
:101B7A007B01900314E0FEA3E0FFE92FF9EA3EFAA5
:101B8A00900316E475F001120207ADF0FC9002C949
:101B9A007401F07F501216ACEF60037F01227F05BB
:101BAA00122703900315E004F07006900314E00472
:0E1BBA00F080969000FEE004F01222BA7F0048
:011BC80022FA
:102804009000FEE0FFEFD39400402E7B017A017923
:10281400C79000FEE0FF9000FDE0FEEE8FF0A4FF05
:102824009002D3EFF07D087C007F501215B1EF6069
:0C283400037F01227F051227037F002292
:1007B1005387EF1229A8122A0C12295A1200567FC8
:1007C1000A122930D28CD2AF122A687B017A0079C1
:1007D10039121FA7EF60357B017A00793AC003C057
:1007E10002C0017B017A007901A801AC02AD03D0FE
:1007F10001D002D0037E007F101201517B017A00EB
:1008010079017D101222577F3212274512002612DC
:100811001EA1750D00E50D70030209217B017A000F
:100821007901C003C002C0017B017A007931A801BE
:10083100AC02AD03D001D002D0037E007F041201CF
:10084100517B017A007909C003C002C0017B017AA2
:10085100007935A801AC02AD03D001D002D0037EEE
:10086100007F041201511227C6D2EB7D027F647E04
:10087100081229CD750C00AF0C74372FF582E434C2
:1008810003F583E0FF12191B9001C37444F090013A
:10089100C3E0FFEFB44420750800750900122ACFA8
:1008A1007FB01220AB1229A8122A0C1200567F0227
:1008B100122930D28CD2AFE508601A750800900079
:1008C100FA7421F07B017A0079319003007408F009
:1008D1007F1112178AE509601A7509009000FA74F0
:1008E10022F07B017A0079319003007408F07F11C6
:1008F10012178A7FC0122A51750E00750F00750BF1
:1009010001E50BB40104E50F60F7E50F600B121E62
:10091100A17FA0122A5102088F12043802088F22E7
:10092100900000E4F07E007F407D007B017A017938
:10093100C712040C12185AEF600280FED2927B019A
:100941007A0079FB7D081222577F321227459000E9
:10095100FEE0FFEFD3940040197B017A0179C79043
:1009610000FEE0FFEF75F008A4FD1222577F32125E
:1009710027451227C6D2EB7D027F647E081229CD5E
:10098100750C00AF0C74372FF582E43403F583E066
:10099100FF12191B20B42220B41F1221F412185A7D
:1009A100B2877F05122745B2877F0A122745B28792
:1009B1007F05122745B28780DE20B54C9000F9747F
:1009C10001F020B5169000F9E0FFEFC3940840F262
:1009D1009000F9E0FFEF13928780E7900000E0FFBD
:1009E100EF70179000F9E0FFEFC394084015D2872C
:1009F100C2929000007401F08009900000E4F0C2FE
:100A010087D2929000F9E4F07FC0122A51750E004E
:100A1100750F00750B01E50BB40104E50F60F7E5F7
:100A21000F60087FA0122A510209951204380209A9
:020A310095220C
:10225700900318EBF0A3EAF0A3E9F090031BEDF06D
:1022670090031BE0FFEF604A90031BE0FF7E0090A6
:102277000318E0FBA3E0FAA3E0F9C003C002C00122
:102287007B017A017983A801AC02AD03D001D002AA
:10229700D00312015190031BE0FF900331EFF07E52
:1022A700017F83900332EEF0A3EFF0900183E0FF0C
:0322B7008F9922DA
:03007800D29622FB
:032ACC00C296228D
:01000A0022D3
:10178A009002FCEFF09002FDEBF0A3EAF0A3E9F07F
:10179A007E007F407D007B017A01794312040C9020
:1017AA000300E0FFEF2402FF900143EFF09002FCF8
:1017BA00E0FF900144EFF0900300E0FF7E0090020A
:1017CA00FDE0FBA3E0FAA3E0F9C003C002C0017B7D
:1017DA00017A017945A801AC02AD03D001D002D04B
:1017EA00031201517F40122A3A900301E4F0A3E464
:1017FA00F0900143E0FF7E00900301E0FCA3E0FDCE
:10180A00C3ED9FEC9E5037900301E0FEA3E0FFEF8B
:10181A002400FFEE3409FE900301E0FCA3E0FD740E
:10182A00432DF58274013CF583E0FD1229CD900326
:10183A0002E004F07006900301E004F080B37FD068
:0F184A00122A51750B01E50B70FC7F0212293039
:01185900226C
:100438007E007F407D007B017A01790312040C78ED
:100448005406E6187001067F20122A3A7F807E093A
:10045800122A239001C4EFF09001C4E0FFEF60621C
:100468007F817E09122A239001C3EFF0900328E4CC
:10047800F0A37402F09001C4E0FF7E00900328E02E
:10048800FCA3E0FDC3ED9FEC9E5037900328E0FEEF
:10049800A3E0FFEF2480FFEE3409FE122A23900325
:1004A80028E0FCA3E0FD74012DF58274013CF5837E
:1004B800EFF0900329E004F07006900328E004F0C0
:1004C80080B39001C3E0FFEF641160030206369029
:1004D8000103E0FFEF640160030207B07B017A01CA
:1004E80079037D08121BC990032AEFF0900000E001
:1004F800FFEF6401600302059B90032AE0FFEFC34E
:10050800940850030207B07B017A017903C003C045
:1005180002C0019000FEE0FF7E08EF8EF0A4FFAE5F
:10052800F074C72FF974013EFA7B01A801AC02AD43
:1005380003D001D002D0037E007F08120151121BA4
:100548002AEF60377B007A007900C003C002C0013F
:100558009000FEE0FF7E08EF8EF0A4FFAEF074C7B7
:100568002FF974013EFA7B01A801AC02AD03D0015A
:10057800D002D0037E007F08120151B2877F051296
:100588002745B2877F0A122745B2877F051227457C
:10059800B2872290032AE0FFEFC3940840030207C2
:1005A800B0121EA190032AE0FF7E08EF8EF0A4FF90
:1005B800AEF074C72FF974013EFA7B01C003C00284
:1005C800C0017B017A007931A801AC02AD03D001EA
:1005D800D002D0037E007F08120151122A687B01E5
:1005E8007A007939122029EF604090032AE0FF90C1
:1005F8000039EFF07B017A00793AC003C002C001EC
:100608007B017A0079D9A801AC02AD03D001D002F0
:10061800D0037E007F201201517B017A0079399046
:1006280003007421F07F2212178A120026229001FB
:10063800C3E0FFEF642260030206DCD2929001035C
:10064800E0FF90032AEFF07B017A017904C003C030
:1006580002C0017B017A0079D9A801AC02AD03D0B0
:1006680001D002D0037E007F2012015112254EEFE7
:1006780060597E007F407D007B017A007939120441
:100688000C90032AE0FF900039EFF09000FAE0FFA9
:1006980090003AEFF07B017A007979C003C002C07C
:1006A800017B017A00793BA801AC02AD03D001D0EF
:1006B80002D0037E007F201201517B017A00793934
:1006C8009003007422F07F3312178AC2929001C3FC
:1006D8007444F0229001C3E0FFEF64336003020723
:1006E800B0900103E0FF90032AEFF0900104E0FFCF
:1006F8009000FAEFF090032AE0FFEFC3940840035C
:100708000207AD90032AE0FF7E08EF8EF0A4FFAE4B
:10071800F074C72FF974013EFA7B01C003C002C010
:10072800017B017A007931A801AC02AD03D001D078
:1007380002D0037E007F081201517B017A017905FE
:10074800C003C002C0017B017A007979A801AC021C
:10075800AD03D001D002D0037E007F2012015112D8
:100768002599EF60407B017A007999C003C002C0E7
:10077800017B017A007979A801AC02AD03D001D0E0
:1007880002D0037E007F201203E8EF70189000FA71
:10079800E0FFEFB421031200789000FAE0FFEFB415
:0807A8002203122ACC121EA14B
:0107B0002226
:10254E0090034BE4F0122502122A687B017A00797F
:10255E0079C003C002C0017B017A0079D99002983C
:10256E00EBF0A3EAF0A3E9F090029B7420F0D00107
:10257E00D002D0037D20120EFEEF600690034B7446
:0A258E0001F012002690034BE0FF5D
:012598002220
:1025990090034CE4F0122502122A687B017A007933
:1025A90099C003C002C0017B017A0079D9900298D1
:1025B900EBF0A3EAF0A3E9F090029B7420F0D001BC
:1025C900D002D0037D20120EFEEF600690034C74FA
:0A25D90001F012002690034CE0FF11
:0125E30022D5
:101BC90090030FEBF0A3EAF0A3E9F0900312EDF014
:101BD900900313E4F0900313E0FFEFC394085075EA
:101BE900900313E0FFEF75F008A424C7F582E434ED
:101BF90001F583E0FFEF640160037F08229003127F
:101C0900E0FF7E00C006C00790030FE0FBA3E0FAE7
:101C1900A3E0F9C003C002C001900313E0FF7E08EE
:101C2900EF8EF0A4FFAEF074C72FF974013EFA7B72
:101C390001A801AC02AD03D001D002D003D007D076
:101C4900061203E8EF7006900313E0FF22900313D6
:071C5900E004F080807F0829
:011C60002261
:032ACF00D2EC2224
:03005B00022A7EF8
:102A7E00439110C2EC20B50375080120B40375090B
:022A8E00013213
:1028760043BB1053E13F53E23F90020FE0FFEF44AA
:1028860004FD7F087E081229CD7D017F397E08125E
:1028960029CD900210E0FFEF4480FD7F097E0812EB
:0328A60029CD2217
:1024B5001214AC7D7F7F067E081229CD7D007F0733
:1024C5007E081229CD7D807F697E081229CD7D3A4F
:1024D5007F687E081229CD7FA0122A51D2EB7D0498
:1024E5007F647E081229CD900209E0FFEF4408FDC4
:0D24F5007F027E081229CD7FD01220AB227D
:10236E001214AC7D7F7F067E081229CD7D007F077B
:10237E007E081229CD7D807F697E081229CD7D28A9
:10238E007F687E081229CD7FA0122A51D2EB7D04E0
:10239E007F647E081229CD900209E0FFEF4408FD0C
:1023AE007F027E081229CD7FD01220AB1204387F17
:0523BE00A0122A5122CB
:102128001214AC7D7F7F067E081229CD7D007F07C3
:102138007E081229CD7D807F697E081229CD7D3CDD
:102148007F687E081229CD7D007F667E081229CD22
:102158007DC57F217E081229CD7D917F247E0812BE
:1021680029CD7FA0122A51D2EB7D047F647E08120C
:1021780029CD900209E0FFEF4448FD7F027E081256
:0821880029CD7FD01220AB220B
:102679001214AC7D7F7F067E081229CD7D007F076D
:102689007E081229CD7D217F687E081229CD7FA081
:10269900122A5112000AD2EB7D047F647E081229A6
:1026A900CD900209E0FFEF4408FD7F027E08122960
:0726B900CD7FD01220AB22FF
:102787001214AC7D7F7F067E081229CD7D197F0745
:102797007E081229CD7DC07F697E081229CDD2EB34
:1027A7007D047F647E081229CD90020FE0FFEF447D
:0F27B70007FD7F087E081229CD7FD01220AB22AC
:102982001214AC7D007F5C7E081229CD7DEF7F5D45
:102992007E081229CDD2EB7D017F647E081229CDFB
:0629A2007FD01220AB22E1
:101CF400E5BB543FFFEF4420F5BB53BB3F53E1FB2F
:101D040043E204900228E0FFEF4402FD7F217E08B5
:101D14001229CDD2EB7D087F647E081229CD900272
:101D24005FE0FFEF4401FD7F587E081229CD750B5B
:101D340001E50B70FC7F597E08122A237E007E0089
:101D4400EF54F0FF90033CEEF0A3EFF090033CE07F
:101D5400FEA3E0FFEFC4F8540FC868FFEEC454F0CC
:101D640048FE90033CEEF0A3EFF07F5A7E08122A5F
:101D7400237E0090033DE02FF090033CE03EF08092
:011D84009DC1
:011D8500223B
:102415007FA0122A517DC57F217E081229CD900209
:1024250009E0FFEF4440FD7F027E081229CDD2EB83
:102435007D807F647E081229CD7FC0122A51750BDD
:1024450001E50B600E7F247E08122A2390034DEFD1
:0F245500F080EE7F247E08122A2390034DEFF0D3
:012464002255
:101399001214AC53BCFE7F02122A3A900253E0FFAA
:1013A900EF4404FD7F4C7E081229CD7DFF7F4D7EE1
:1013B900081229CD7DFF7F487E081229CD7DE07F67
:1013C900477E081229CD7D007F467E081229CD7DF2
:1013D900007F4B7E081229CD7D007F4A7E081229A5
:1013E900CD7D007F497E081229CD900255E0FFEF9F
:1013F9004489FD7F4E7E081229CDD2EB7FD0122081
:10140900AB7F487E08122A23E4FCFDFE90031C12E0
:1014190002307F477E08122A23E4FCFDFEC004C087
:1014290005C006C00790031CE0FCA3E0FDA3E0FE95
:10143900A3E0FF780812021DA804A905AA06AB07B4
:10144900D007D006D005D004EB2FFFEA3EFEE93DD8
:10145900FDE83CFC90031C1202307F467E08122AEC
:1014690023E4FCFDFEC004C005C006C00790031CB0
:10147900E0FCA3E0FDA3E0FEA3E0FF780812021D53
:10148900A804A905AA06AB07D007D006D005D00441
:10149900EB2FFFEA3EFEE93DFDE83CFC90031C1200
:0214A90002300F
:0114AB00221E
:101280001214AC43BC0153D9F053DAF07F02122A96
:101290003A90025CE0FFEF4404FD7F557E0812297E
:1012A000CD7DFF7F567E081229CD7DFF7F517E08C0
:1012B0001229CD7DE07F507E081229CD7D007F4F21
:1012C0007E081229CD7D007F547E081229CD7D0035
:1012D0007F537E081229CD7D007F527E081229CDD2
:1012E00090025EE0FFEF4489FD7F577E081229CD12
:1012F000D2EB7FD01220AB7F517E08122A23E4FC70
:10130000FDFE9003201202307F507E08122A23E453
:10131000FCFDFEC004C005C006C007900320E0FC31
:10132000A3E0FDA3E0FEA3E0FF780812021DA804DD
:10133000A905AA06AB07D007D006D005D004EB2F2D
:10134000FFEA3EFEE93DFDE83CFC9003201202303E
:101350007F4F7E08122A23E4FCFDFEC004C005C0B6
:1013600006C007900320E0FCA3E0FDA3E0FEA3E09D
:10137000FF780812021DA804A905AA06AB07D0072A
:10138000D006D005D004EB2FFFEA3EFEE93DFDE894
:081390003CFC90032012023026
:011398002232
:1023C3007D027F027E081229CD7D007F037E0812E5
:1023D30029CD7D3F7F047E081229CD7D007F057EB8
:1023E300081229CD7D007F0E7E081229CD7D057F41
:1023F3000F7E081229CD7D017F107E081229CD7D25
:10240300007F5C7E081229CD7D007F5D7E08122946
:02241300CD22D8
:10005E0090034EE4F090034EE0FFEFC3940A500974
:09006E000090034EE004F080EC68
:010077002266
:102A900043BB0275F58075F70575F541E5F520E056
:022AA000FB2217
:092ABD0075F541E5F520E0FB226E
:062AC600E5F520E6FB220D
:0B2AB200E5F530E0FBE5F520E0FB223D
:102AA20090034FEFF090034FE0FFEF25E0F5F422A3
:1028400090033EEFF090033FEDF090033EE0FF8FEA
:10285000F690033FE0FF8FF512005EE5F520E0FB08
:10286000E5F55412FFEF600BE5F520E40375F50480
:062870007F01227F00221F
:10000E00900350EFF0900350E0FFEF25E0FFEF4438
:04001E0001F5F422D2
:1028DC00900351EFF0900351E0FF8FF512005EE58D
:1028EC00F520E0FBE5F55412FFEF600BE5F520E475
:0A28FC000375F5047F01227F00221E
:101C6100900303EFF0900304EBF0A3EAF0A3E9F093
:101C7100900307E0FFEF70037F0122900303E0FF71
:101C8100122AA2122AC6D202900307E0FFEF606077
:101C9100900307E0FFEFB4011530020AC20290037E
:101CA100087407F0801B9003087405F0801330025C
:101CB1000AC2029003087403F080069003087401BD
:101CC100F0900304E0FBA3E0FAA3E0F9120177FF2F
:101CD100900308E0FD122840EF60037F012290038A
:101CE10005E475F0011201F1900307E014F080980A
:021CF1007F0072
:011CF30022CE
:101D8600900309EFF090030AEBF0A3EAF0A3E9F061
:101D960090030DE0FFEF70037F0122900309E0FF3F
:101DA60012000E122AC6D20390030DE0FFEF605C0C
:101DB60090030DE0FFEFB4011530030AC203900350
:101DC6000E7407F0801B90030E7405F08013300329
:101DD6000AC20390030E740BF0800690030E74097A
:101DE600F090030EE0FF1228DCEF60037F012290E3
:101DF600030AE0FBA3E475F001120207A9F0FAE575
:0E1E0600F61201BD90030DE014F0809C7F00E9
:011E140022AB
:1016AC009002C3EFF09002C4ECF0A3EDF09002C6F0
:0816BC00EBF0A3EAF0A3E9F052
:1016C4009002C9E0FFEFD3948040037F012290028F
:1016D400C9E0FFEF70037F01229002C4E0FEA3E0A3
:1016E400FFEE5407FE9002C4EEF0A3EFF09002C4A4
:1016F400E0FEA3E0FF9002CBEFF09002C4E0FEA373
:10170400E0FFEEFF7E009002CCEFF09002CCE0FF11
:101714009002C3E0FEEE4FFF122AA275F503E5F531
:101724005404FFEF640160F69002CBE0FF8FF6757E
:10173400F501122AB29002C9E0FFEF60469002C997
:10174400E0FFEFB401089002CA7405F0800690022D
:10175400CA7401F09002C6E0FBA3E0FAA3E0F91218
:101764000177FF9002CAE0FD122840EF60037F0179
:10177400229002C7E475F0011201F19002C9E0144D
:05178400F080B27F00BF
:01178900223D
:1015B1009002CDEFF09002CEECF0A3EDF09002D0CE
:0815C100EBF0A3EAF0A3E9F04E
:1015C9009002D3E0FFEF70037F01229002CEE0FE8C
:1015D900A3E0FFEE5407FE9002CEEEF0A3EFF090E9
:1015E90002CEE0FEA3E0FF9002D5EFF09002CEE03C
:1015F900FEA3E0FFEEFF7E009002D6EFF09002D648
:10160900E0FF9002CDE0FEEE4FFF122AA275F5032E
:10161900E5F55404FFEF640160F69002D5E0FF7D23
:1016290001122840EF60037F01229002D6E0FF906B
:1016390002CDE0FEEE4FFF12000ED2049002D3E07D
:10164900FFEF605C9002D3E0FFEFB4011530040AAC
:10165900C2049002D47407F0801B9002D47405F080
:10166900801330040AC2049002D4740BF0800690EF
:1016790002D47409F09002D4E0FF1228DCEF600371
:101689007F01229002D0E0FBA3E475F0011202076A
:10169900A9F0FAE5F61201BD9002D3E014F0809C9E
:0216A9007F00C0
:0116AB00221C
:1028A900030730000000035D03070280000009AD43
:1028B90003071B00000024CD03270800000003279D
:1028C900128238007465737420313233000327088B
:0328D900000700F5
:04005600122A9022B8
:101A82009002E1EBF0A3EAF0A3E9F09002E4EDF0BA
:101A92007B007A007900C003C002C0019002E1E03D
:101AA200FBA3E0FAA3E0F9D082D083D0E06B700808
:101AB200E965827003EA658370047F0180027F001A
:101AC2009002E4E0FEEE70047E0180027E00EF4EA2
:101AD200FFEF70539002E1E0FBA3E0FAA3E0F9907C
:101AE20002E4E0FF900307EFF07F64121C619002B2
:101AF200E8E0FF7E007D009002E5E0FBA3E0FAA3B0
:101B0200E0F912040C9002E9E0FF1227459002E589
:101B1200E0FBA3E0FAA3E0F99002E8E0FF90030DF6
:081B2200EFF07F64121D862222
:0B1F25009002A2EBF0A3EAF0A3E9F0A9
:101F30007BFF7A2879A9C003C002C0017B017A0225
:101F400079A5A801AC02AD03D001D002D0037E0078
:101F50007F081201517B017A0279A5C003C002C03B
:101F6000019002A2E0FBA3E0FAA3E0F99002E5EB06
:101F7000F0A3EAF0A3E9F09002E87407F09002E918
:101F80007401F0D001D002D0037D08121A829002B1
:101F9000A2E0FBA3E0FAA3E0F9120177FFEFB40798
:061FA000037F01227F0017
:011FA6002218
:0B1FA7009002ADEBF0A3EAF0A3E9F01C
:101FB2007BFF7A2879B1C003C002C0017B017A029B
:101FC20079B0A801AC02AD03D001D002D0037E00EB
:101FD2007F081201517B017A0279B0C003C002C0AE
:101FE200019002ADE0FBA3E0FAA3E0F99002E5EB79
:101FF200F0A3EAF0A3E9F09002E87423F09002E97A
:102002007401F0D001D002D0037D08121A8290022E
:10201200ADE0FBA3E0FAA3E0F9120177FFEFB423EE
:06202200037F01227F0094
:012028002295
:0B2029009002B8EBF0A3EAF0A3E9F08E
:102034007BFF7A2879B9C003C002C0017B017A0210
:1020440079BBA801AC02AD03D001D002D0037E005D
:102054007F081201517B017A0279BBC003C002C020
:10206400019002B8E0FBA3E0FAA3E0F99002E5EBEB
:10207400F0A3EAF0A3E9F09002E87423F09002E9F7
:102084007406F0D001D002D0037D08121A829002A7
:10209400B8E0FBA3E0FAA3E0F9120177FFEFB42361
:0620A400037F01227F0012
:0120AA002213
:10250200900352E4F0900352E0FFEFC39420503B5B
:10251200900352E0FF74D92FF582E43400F583C0B2
:1025220083C082E0FF900352E0FEEE5407FE743156
:102532002EF582E43400F583E0FEEF6EFFD082D008
:0B25420083EFF0900352E004F080BA39
:01254D00226B
:100EFE00900294EBF0A3EAF0A3E9F0900297EDF0E4
:100F0E007BFF7A2879C1C003C002C0017B017A023F
:100F1E00799CA801AC02AD03D001D002D0037E00B3
:100F2E007F061201517E007F407D007B017A0179A0
:100F3E004312040C7B017A02799CC003C002C001EB
:100F4E007B017A017943A801AC02AD03D001D00236
:100F5E00D0037E007F0612015190029BE0FF7E00BF
:100F6E00900298E0FBA3E0FAA3E0F9C003C002C030
:100F7E00017B017A017949A801AC02AD03D001D001
:100F8E0002D0031201517B017A017944C003C002E1
:100F9E00C0017B017A017969900289EBF0A3EAF036
:100FAE00A3E9F0D001D002D0037D25120DCF7B0135
:100FBE007A017943C003C002C0017B017A01790333
:100FCE009002E5EBF0A3EAF0A3E9F09002E87423B7
:100FDE00F09002E97404F0D001D002D0037D281203
:100FEE001A82900103E0FFEFB42330900297E0FFE6
:100FFE007E007B017A017904C003C002C001900219
:10100E0094E0FBA3E0FAA3E0F9A801AC02AD03D093
:0D101E0001D002D0031201517F01227F009A
:01102B0022A2
:10102C00900272EBF0A3EAF0A3E9F0900275EDF0F8
:10103C007BFF7A2879C7C003C002C0017B017A020A
:10104C007976A801AC02AD03D001D002D0037E00AA
:10105C007F061201517BFF7A2879CDC003C002C0F4
:10106C00017B017A02797CA801AC02AD03D001D0DE
:10107C0002D0037E007F091201517E007F407D006B
:10108C007B017A01794312040C7B017A027976C0D8
:10109C0003C002C0017B017A017943A801AC02AD07
:1010AC0003D001D002D0037E007F061201519002C2
:1010BC0075E0FF7E00900272E0FBA3E0FAA3E0F97A
:1010CC00C003C002C0017B017A017949A801AC02BE
:1010DC00AD03D001D002D0031201517B017A01790A
:1010EC0044C003C002C0017B017A01796990028976
:1010FC00EBF0A3EAF0A3E9F0D001D002D0037D25F8
:10110C00120DCF7B017A017943C003C002C0017B71
:10111C00017A0179039002E5EBF0A3EAF0A3E9F080
:10112C009002E87404F09002E97404F0D001D0024B
:10113C00D0037D28121A82900103E0FFEFB4040B58
:0D114C00900104E0FFEF70037F01227F009F
:011159002273
:10115A009002D7EBF0A3EAF0A3E9F09002DAEDF0FF
:10116A007BFF7A2879D6C003C002C0017B017A02CC
:10117A0079DBA801AC02AD03D001D002D0037E0016
:10118A007F061201517E007F407D007B017A017942
:10119A004312040C7B017A0279DBC003C002C0014E
:1011AA007B017A017943A801AC02AD03D001D002D8
:1011BA00D0037E007F061201517B017A0079D9C0E3
:1011CA0003C002C0017B017A017949A801AC02ADD2
:1011DA0003D001D002D0037E007F201201517B018F
:1011EA007A017944C003C002C0017B017A0179699E
:1011FA00900289EBF0A3EAF0A3E9F0D001D002D083
:10120A00037D25120DCF7B017A017943C003C00209
:10121A00C0017B017A0179039002E5EBF0A3EAF0C1
:10122A00A3E9F09002E87423F09002E97404F0D084
:10123A0001D002D0037D28121A82900103E0FFEF49
:10124A00B423309002DAE0FF7E007B017A01790450
:10125A00C003C002C0019002D7E0FBA3E0FAA3E0FA
:10126A00F9A801AC02AD03D001D002D0031201519A
:05127A007F01227F004E
:01127F00224C
:102A680075F60075F5037F0112293075F5057F05A8
:062A78001227037F00227B
:1000260075F4C8E5F520E6FB75F60175F5071200CF
:100036005EE5F520E0FBE5F55412FFEF600BE5F514
:0C00460020E40375F5047F01227F0022F6
:100DCF00900285EBF0A3EAF0A3E9F0900288EDF032
:100DDF0090028DE4F0A3E4F090028F7480F0A3747E
:100DEF0005F090028CE4F0900288E0FF90028CE016
:100DFF00FEEEC39F4003020EC19002917401F0906A
:100E0F000291E0FFEFD394005003020EB8900285D9
:100E1F00E0FBA3E0FAA3E0F990028CE0FF8F82756C
:100E2F008300120190FF900291E0FEEF5EFFEF60F2
:100E3F00047F0180027F00900292EFF090028DE01C
:100E4F00FEA3E0FFEEC41313135401FF7E009002C4
:100E5F0093EFF090028DE0FEA3E0FFEF25E0FFEEB1
:100E6F0033FE90028DEEF0A3EFF0900293E0FF902F
:100E7F000292E0FEEE6FFFEF601E90028DE0FEA388
:100E8F00E0FF90028FE0FCA3E0FDEE6CFEEF6DFF44
:100E9F0090028DEEF0A3EFF0900291E0FFEF25E0CE
:100EAF00FF900291EFF0020E0E90028CE004F00220
:100EBF000DF690028DE0FEA3E0FFEF54FFFF9002CE
:100ECF0089E0FBA3E0FAA3E0F9EF1201BD90028DD8
:100EDF00E0FEA3E0FFEEFF7E00900289E0FBA3E0BF
:0E0EEF00FAA3E0F9758201758300EF1201CFBE
:010EFD0022D2
:05290600900342EFF018
:10290B00900342E0FF14F0EF601A900343E4F09061
:10291B000343E0FFEFC3940750E6900343E004F05A
:04292B0080ED80DCDF
:01292F002285
:05293000900344EFF0EC
:10293500900344E0FF14F0EF601A900345E4F09033
:102945000345E0FFEFC3946750E6900345E004F0CC
:0429550080ED80DCB5
:01295900225B
:0527030090032BEFF034
:1027080090032BE0FF14F0EF603290032CE4F0907C
:10271800032CE0FFEFC3940A50E690032DE4F090F9
:10272800032DE0FFEFC394D2500890032DE004F08E
:0C27380080ED90032CE004F080D580C4FC
:012744002272
:0527450090032EEFF0EF
:10274A0090032EE0FF14F0EF603290032FE4F09034
:10275A00032FE0FFEFC3946450E6900330E4F09057
:10276A000330E0FFEFC394D25008900330E004F046
:0C277A0080ED90032FE004F080D580C4B7
:012786002230
:1029A80075800075D1FF75D2FF75D3FF75900075DE
:1029B800D9FF75DAFF75DBFF75B0FF75E1C275E207
:0529C800C275E3FF22CF
:102A0C00C28CE58954F0FFEF4401F589758CFB7598
:072A1C008AD5C28DD2A92268
:10295A0043BB01C28EE589540FFFEF4420F5897508
:10296A008DF5758BF5758780758E1075984075C8CD
:08297A0000D29CD28ED2AC22E7
:03000B000221903F
:10219000C0E0C083C082C0D075D000C000C006C0FF
:1021A00007758CFB758AD5C28D050EE50EC3949616
:1021B0004003750F01781106E6187001067810E6E5
:1021C000FE08E6FFC3EF94F4EE9401401878107611
:1021D000000876009000F9E0FFEFD39400400690ED
:1021E00000F9E004F0D007D006D000D0D0D082D0E3
:0421F00083D0E03286
:0300230002262F83
:10262F00C0E0C083C082C0D075D01830992EC29937
:10263F00900331E014F0900331E0FFEF601E900340
:10264F0033E004F07006900332E004F0900332E0C0
:10265F00FEA3E0FF8F828E83E0FF8F99309802C236
:0A266F0098D0D0D082D083D0E032A2
:032AD20080FE2261
:1029F2003475C58CC73345E787681487801487A070
:0A2A02001487781487901487B0142D
:062628004303370001022C
:1029CD00900334EEF0A3EFF0900336EDF090033664
:1029DD00E0FF900334E0FCA3E0FD8D828C83EFF0EB
:0529ED000000000022C3
:102A2300900346EEF0A3EFF0900346E0FEA3E0FF31
:072A33008F828E83E0FF2279
:102A3A00900353EFF0900353E0FD7F007E081229C4
:072A4A00CD7F0112290622D5
:102A5100900354EFF0900354E0FD7F017E081229AA
:072A6100CD7F0112290622BE
:1027C6007F051229307F80122A3A1223187F0512BC
:1027D60029301219D4120A33E50D6011900227E050
:1027E600FFEF54FEFD7F207E081229CD229002279E
:0E27F600E0FFEF4401FD7F207E081229CD2276
:102318007F011226C0900348E4F0A3E4F09003483C
:10232800E0FEA3E0FFC3EF946BEE940050379003F8
:1023380048E0FEA3E0FFEF2400FFEE3408FE900320
:1023480048E0FCA3E0FD74072DF58274023CF58398
:10235800E0FD1229CD900349E004F070069003488F
:05236800E004F080B864
:01236D00224D
:1019D4009002EAE4F09002EAE0FFEFC39408502694
:1019E4009002EAE0FF7E00C374419FFF74089EFEEC
:1019F4009002EAE0FDED9029F293FD1229CD9002C8
:101A0400EAE004F080CF9002EAE4F09002EAE0FF1A
:101A1400EFC39408502C9002EAE0FF7E00C37441A7
:101A24009FFF74089EFE122A239002EAE0FE74EBE4
:101A34002EF582E43402F583EFF09002EAE004F03C
:101A440080C99002EAE4F09002EAE0FFEFC3940850
:101A5400502B9002EAE0FFEF9029F293FF9002EA04
:101A6400E0FE74EB2EF582E43402F583E0FEEE6FC3
:0D1A74006003122AD29002EAE004F080CA5A
:011A81002242
:100A33007FA0122A51900231E0FD7F2A7E081229FD
:100A4300CD90020AE0FFEF440AFD7F037E081229DE
:100A5300CD7F037E08122A239002FAEFF09002FA68
:100A6300E0FFEF540AFFEF70E87F2A7E08122A2383
:100A73009002FAEFF09002FAE0FFEF540FFF9002BA
:100A8300F3EFF09002FAE0FFEFC4540FFFEF5401CD
:100A9300FF9002F5EFF07F2B7E08122A239002FAD3
:100AA300EFF09002FAE0FFEF541FFF9002F4EFF033
:100AB3009002F5E0FFEF6003122AD2900227E0FFD5
:100AC300EF5430FFEFC4540FFF9002FAEFF090029F
:100AD300FAE0FFEF60099002FAE0FFEFB401139030
:100AE30002F3E0FFEF04FFEF4410FD7F2A7E0812BC
:100AF30029CD7F2C7E08122A239002FAEFF0900270
:100B0300FAE0FFEF540FFF9002F6EFF09002FAE0E5
:100B1300FFEFC4540FFFEF5401FF9002F7EFF09083
:100B230002F7E0FFEF6003122AD27DCC7F217E081B
:100B33001229CD90020AE0FFEF4401FD7F037E08F6
:100B43001229CD7F037E08122A239002FAEFF09038
:100B530002FAE0FFEF20E0EB900228E0FD7F217E28
:100B6300081229CD9002FBE4F09002FBE0FFEF7541
:100B7300F003A424FAF582E43429F583E493FD7F9A
:100B8300147E081229CD9002FBE0FFEF75F003A459
:100B930024FBF582E43429F583E493FD7F157E0875
:100BA3001229CD9002FBE0FFEF75F003A424FCF5BE
:100BB30082E43429F583E493FD7F167E081229CD60
:100BC30090020AE0FFEF4404FD7F037E081229CD63
:100BD3007F037E08122A239002FAEFF09002FAE0D4
:100BE300FFEF20E2EB7F2D7E08122A239002FAEF1B
:100BF300F09002FAE0FFEF5407FF9002F8EFF09055
:100C030002FAE0FFEF131313541FFFEF5401FF9099
:0F0C130002F9EFF09002F9E0FFEF6003122AD22E
:010C220022AF
:1020AB00900355EFF075BB0075D10075D2FF7580AD
:1020BB000075D3FF75D90075DAFF75900075DBFFDE
:1020CB0075E10075E20075B0C375E3C37D087F62EF
:1020DB007E081229CD900355E0FFEF12023C210C34
:1020EB00A82101B020F6D0000021157DD07F637EA2
:1020FB00081229CD80147DB07F637E081229CD8014
:10210B00097DA87F637E081229CD7F80122A517525
:0D211B00B9094387020000E58720E1FB229F
:10191B00900356EFF0E50D6058900356E0FFEF751E
:10192B00F003A424FAF582E43429F583E493FD7FD4
:10193B00147E081229CD900356E0FFEF75F003A437
:10194B0024FBF582E43429F583E493FD7F157E08AF
:10195B001229CD900356E0FFEF75F003A424FCF59C
:10196B0082E43429F583E493FD7F167E081229CD9A
:10197B0022900356E0FFEF75F003A42403F582E4F5
:10198B00342AF583E493FD7F147E081229CD90034E
:10199B0056E0FFEF75F003A42404F582E4342AF536
:1019AB0083E493FD7F157E081229CD900356E0FF4B
:1019BB00EF75F003A42405F582E4342AF583E49350
:0919CB00FD7F167E081229CD22D1
:1014AC009003267403F0A3740DF07FA0122A5190C0
:1014BC000326E0FEA3E0FFEEFF7E00AD077F0C7E6F
:1014CC00081229CD900326E0FEA3E0FFAD077F0DA7
:1014DC007E081229CD90020FE0FFEF4404FD7F0837
:1014EC007E081229CD900210E0FFEF4401FD7F0928
:1014FC007E081229CD7F097E08122A237E009003D4
:10150C0024EEF0A3EFF0900324E0FEA3E0FFEF2025
:10151C00E0E37F097E08122A237E007E00EF54F060
:10152C00FF900324EEF0A3EFF0900324E0FEA3E081
:10153C00FFEFC4F8540FC868FFEEC454F048FE9097
:10154C000324EEF0A3EFF07F0A7E08122A237E001C
:10155C00900325E02FF0900324E03EF0900326E06A
:10156C00FEA3E0FFEF24F6FFEE34FFFE900324E031
:10157C00FCA3E0FDD3ED9FEC9E50030214F190030D
:10158C0026E0FEA3E0FFEF240AFFEE3400FE9003FA
:10159C0024E0FCA3E0FDC3ED9FEC9E40030214F19C
:0415AC00220214F112
:0115B0002218
:03005300020003A5
:07000300439108750B003268
:100C230000A002003F0000000000000000000005DB
:100C3300013DB04C87681400008687F615601B5F82
:100C430002C0BF00000300032B2A000780106D18A9
:100C5300030400370218498004000000000000006C
:100C63000000000000000000000000000000000081
:100C7300000000000000000066000000000000818A
:100C830020B408D00000000000001100A002003FC3
:100C93000000000000000000000005013DB04C878B
:100CA300681400008687F615C01B5F12C0BF0000E2
:100CB3000300032B2A000780106D1803040037027A
:100CC3001848800000000000000000000000000041
:100CD3000000000000000000000000000000000011
:100CE300000000660000000000008120B408D0006E
:100CF30000000000001100A002003F0000000000FF
:100D0300000000000005813DB04C5A4562000059C7
:100D13005AA995C01B5F22C0BF00000300032B2A02
:100D2300000780106D180304003702184880000084
:100D330000000000000000000000000000000000B0
:100D4300000000000000000000000000000066003A
:100D530000000000008120B408D000000000000063
:100D63001100A002003F000000000000000000008E
:100D73004541BFB04C6C534300006B6CC816C01B9D
:100D83005F32C0BF00000300032B2A000780106DF1
:100D93001803040037021848800000000000000018
:100DA3000000000000000000000000000000000040
:100DB30000000000000000000066000000000000CA
:0C0DC3008120B408D000000000000011E6
:1026C000E4FD7C6B900207E4F0A3DCFCE4FCFD7508
:1026D000F06BEFA42423F582E5F0340CF583E5825A
:1026E0002DF582E5833CF583E493FE74072DF58296
:1026F000E43402F583EEF00DBD00010CED646B4C8B
:0227000070CD9A
:0127020022B4
:101E21000207B1E493A3F8E493A34003F68001F21F
:101E310008DFF48029E493A3F85407240CC8C333C2
:101E4100C4540F4420C8834004F456800146F6DF91
:101E5100E4800B01020408102040809025E4E47E18
:101E6100019360BCA3FF543F30E509541FFEE49386
:101E7100A360010ECF54C025E060A840B8E493A34D
:101E8100FAE493A3F8E493A3C8C582C8CAC583CA78
:101E9100F0A3C8C582C8CAC583CADFE9DEE780BE30
:01262E0000AB
:10008100E709F608DFFA8046E709F208DFFA803E61
:1000910088828C83E709F0A3DFFA8032E309F6084E
:1000A100DFFA8078E309F208DFFA807088828C83B6
:1000B100E309F0A3DFFA806489828A83E0A3F6086A
:1000C100DFFA805889828A83E0A3F208DFFA804C44
:1000D10080D280FA80C680D4806980F2803380101B
:1000E10080A680EA809A80A880DA80E280CA803384
:1000F10089828A83ECFAE493A3C8C582C8CCC583FC
:10010100CCF0A3C8C582C8CCC583CCDFE9DEE780CB
:100111000D89828A83E493A3F608DFF9ECFAA9F04A
:10012100EDFB2289828A83ECFAE0A3C8C582C8CCA0
:10013100C583CCF0A3C8C582C8CCC583CCDFEADEB9
:10014100E880DB89828A83E493A3F208DFF980CC1B
:1001510088F0EF60010E4E60C388F0ED2402B40414
:100161000050B9F582EB2402B4040050AF232345BB
:0601710082239000D1730F
:10017700BB010689828A83E0225002E722BBFE0286
:09018700E32289828A83E49322B9
:10019000BB010CE58229F582E5833AF583E0225024
:1001A00006E92582F8E622BBFE06E92582F8E2226E
:0D01B000E58229F582E5833AF583E4932288
:1001BD00BB010689828A83F0225002F722BBFE0121
:0201CD00F3221B
:1001CF00F8BB010DE58229F582E5833AF583E8F066
:1001DF00225006E92582C8F622BBFE05E92582C812
:0201EF00F222FA
:1001F100C5F0F8A3E028F0C5F0F8E5821582700299
:060201001583E038F02235
:10020700A3F8E0C5F025F0F0E582158270021583AA
:06021700E0C838F0E82207
:10021D00E8600FEFC333FFEE33FEED33FDEC33FC3F
:03022D00D8F122E3
:0C023000ECF0A3EDF0A3EEF0A3EFF02241
:10023C00D083D082F8E4937012740193700DA3A351
:10024C0093F8740193F5828883E473740293686065
:06025C00EFA3A3A380DF65
:10026200E3F5F009E208B5F06BDFF58067E3F5F03E
:1002720009E608B5F05EDFF5805A87F009E608B5B1
:10028200F052DFF6804E87F009E208B5F046DFF65D
:10029200804288828C8387F009E0A3B5F036DFF6CE
:1002A200803288828C8387F009E493A3B5F025DF3E
:1002B200F5802188828C83E3F5F009E0A3B5F01480
:1002C200DFF5801088828C83E3F5F009E493A3B50F
:1002D200F002DFF4020391808780E9809080D4806D
:1002E2003E8015806E807E809D80B7808D80A38049
:1002F200518074803C02039D89828A83ECFAE493E4
:10030200F5F0A3C8C582C8CCC583CCE493A3C8C505
:1003120082C8CCC583CCB5F076DFE3DEE18070899C
:10032200828A83E493F5F0A3E208B5F062DFF480F9
:100332005E89828A83E0F5F0A3E608B5F051DFF525
:10034200804D89828A83E0F5F0A3E208B5F040DFB0
:10035200F5803C89828A83E493F5F0A3E608B5F040
:100362002EDFF4802A8002805789828A83ECFAE4A5
:1003720093F5F0A3C8C582C8CCC583CCE0A3C8C599
:1003820082C8CCC583CCB5F006DFE4DEE280007F14
:10039200FFB5F0020F2240027F012289828A83EC9C
:1003A200FAE0F5F0A3C8C582C8CCC583CCE0A3C8E7
:1003B200C582C8CCC583CCB5F0D5DFE5DEE380CFFE
:1003C20089828A83ECFAE0F5F0A3C8C582C8CCC55D
:1003D20083CCE493A3C8C582C8CCC583CCB5F0AFA7
:1003E200DFE4DEE280A988F0EF60010E4E60ABED43
:1003F2002402B404005098F582EB2402B4040050A5
:0A0402008E23234582239002D97354
:10040C00EF4E6012EF60010EEDBB010B89828A8307
:10041C00F0A3DFFCDEFA2289F05007F709DFFCA914
:0C042C00F022BBFEFCF309DFFCA9F0226B
:00000001FF
